:020000040800F2
:1000000078080020A10100087D1000080D0E0008EE
:100010007B100008AD020008BD11000800000000C0
:1000200000000000000000000000000017110008A0
:10003000AF020008000000007F100008191100083E
:10004000BB010008BB010008BB010008BB010008A0
:10005000BB010008BB010008BB010008BB01000890
:10006000BB010008BB010008BB010008BB01000880
:10007000BB010008BB010008BB010008BB01000870
:10008000BB010008BB010008BB010008BB01000860
:10009000BB010008BB010008BB010008BB01000850
:1000A000BB010008BB010008BB010008BB01000840
:1000B000BB010008BB010008BB010008BB01000830
:1000C000BB010008BB010008BB010008BB01000820
:1000D000BB010008BB010008BB010008BB01000810
:1000E000BB010008BB010008BB010008BB01000800
:1000F000BB010008BB010008BB010008BB010008F0
:10010000BB010008BB010008BB010008BB010008DF
:10011000BB010008BB010008BB010008BB010008CF
:10012000BB010008BB010008BB010008BB010008BF
:10013000BB010008BB010008BB010008BB010008AF
:10014000BB010008BB010008BB010008BB0100089F
:10015000BB010008BB010008BB010008BB0100088F
:10016000BB010008BB010008BB010008BB0100087F
:10017000BB010008BB010008BB0100080000000033
:10018000BB010008BB010008DFF810D000F07CF8CC
:1001900000480047FD110008AFF3008078080020F8
:1001A0000648804706480047FEE7FEE7FEE7FEE711
:1001B000FEE7FEE7FEE7FEE7FEE7FEE7A111000827
:1001C000890100082DE9F05F0546002092469B4614
:1001D00088460646814640241BE02846414647465D
:1001E000224600F041F853465A46C01A914110D3B6
:1001F00011461846224600F028F82D1A67EB010830
:100200004F4622460120002100F01FF817EB00099D
:100210004E41201EA4F10104DFDC484631462A4647
:100220004346BDE8F09FD2B201E000F8012B491E21
:10023000FBD270470022F6E710B513460A46044683
:100240001946FFF7F0FF204610BD202A04DB203AB4
:1002500000FA02F1002070479140C2F1200320FA19
:1002600003F3194390407047202A04DB203A21FA17
:1002700002F00021704721FA02F3D040C2F12002BF
:100280009140084319467047064C074D06E0E06868
:1002900040F0010394E8070098471034AC42F6D3CD
:1002A000FFF776FFC0260008E0260008FEE770474B
:1002B00070B5044600F0EAF80546601C02D0044818
:1002C0000078044400F0E2F8401BA042FAD370BD6D
:1002D000100000202DE9F84F00224FF001080325FF
:1002E0004FF00F0E0B6808FA02F42340A3426ED1C0
:1002F0004E68012E05D0022E03D0112E01D0122EF1
:1003000012D186684FEA420C05FA0CF7BE43CF685B
:1003100007FA0CF7374387604668A6430C79C4F3A5
:100320000014944034434460C668570005FA07FC43
:100330008C6826EA0C06BC403443C4604C68022C2E
:1003400001D0122C13D1D40800EB8404A346D4F8B6
:10035000209054074FEAD46A0EFA0AF629EA0609F1
:100360000E6906FA0AF646EA0906CBF82060066826
:100370000C7926EA0C0604F00304BC403443046004
:100380004C68E40065D5364C266846F48046266005
:10039000246822F0030604F480440094314C344471
:1003A000A446D4F808489607370F0EFA07F6B44368
:1003B0002D4EB04201D1002624E02C4EB04201D196
:1003C00001261FE02A4EB04202D102261AE040E088
:1003D000284EB04201D1032614E0274EB04201D18D
:1003E00004260FE0254EB04201D105260AE0244E36
:1003F000B04201D1062605E0224EB04201D10726C7
:1004000000E00826BE402643CCF808681E4E34683B
:100410004F689C43FF0300D51C4334601A4C241DD5
:1004200026684F689E43BF0300D51E432660164EC4
:10043000083634684F689C43FF0200D51C43346083
:10044000114E0C3634684F689C43BF0200D51C43E4
:100450003460521C102AFFF445AFBDE8F88F00004D
:1004600044380240003001400000024000040240D5
:1004700000080240000C024000100240001402403C
:1004800000180240001C0240003C01400148806806
:10049000704700001000002070B5040025D094F8CB
:1004A0003D00002520B984F83C50204600F050F96A
:1004B000242084F83D002068016821F001010160DA
:1004C0002068016841F4004101602068016821F45E
:1004D0000041016000F098FA4D4A6168914201D8EC
:1004E0004C4900E04C49884201D2012070BD4B4983
:1004F0002368B0FBF1F15E6826F03F060E435E60B4
:100500006368934206D94FF4967359434FF47A7354
:10051000B1FBF3F12368491C1E6A26F03F06314304
:1005200019626168914210D84900401EB0FBF1F297
:10053000521CC2F30B02042A01D2042022E0B0FBB9
:10054000F1F0401CC0F30B001CE0A268F2B301EB19
:10055000C10303EB0116431EB3FBF6F35B1C43F42C
:1005600080431B0549D092B301EBC10202EB01119C
:10057000401EB0FBF1F0401CC0F30B0040F4804083
:1005800040F400402168CA694CF6FF739A43104357
:10059000C861D4E9071001432068026822F0C00254
:1005A00011430160D4E9030101432068826848F2E5
:1005B000FF339A4311438160D4E905010843216860
:1005C000CA6822F0FF021043C86001E00EE016E0A6
:1005D0002068016841F0010101602564202084F851
:1005E0003D00256384F83E50002070BD01EB4106BC
:1005F000431EB3FBF6F35B1CB3E70120C2E701EB3C
:100600004101401EB0FBF1F0401CC0F30B00B7E706
:10061000A086010080841E0000093D0040420F00BA
:100620002DE9FF4F83B09A46DDE9119793460446C2
:10063000DDF84080FFF72AFF054694F83D002028AA
:100640007FD11923012240492046009500F070FC1B
:10065000002876D194F83C00012872D0012084F85B
:100660003C0020680168C90703D1016841F001011D
:1006700001602068016821F400610160212084F894
:100680003D00402084F83E0000262664C4F8248003
:10069000A4F82A90608D20852C48E062CDE9007591
:1006A00053465A462046049900F0C8FB70B930E022
:1006B0002A463946204600F0BAFC58B1206C04287E
:1006C00004D12068016841F400710160012007B085
:1006D000BDE8F08F606A216800780861606A401C9C
:1006E0006062218D491E89B22185628D521E62850C
:1006F00022685369DB435B070BD469B10078106152
:10070000606A401C6062208D401E2085608D401E06
:100710006085208D0028CBD12A463946204600F03E
:10072000E1FB0028CAD154F83D0B016841F4007187
:100730000160202004F81E09E67766770020C6E7EE
:10074000FFE70220C3E70000020010000000FFFFE7
:1007500010B586B0044614216846FFF76BFD1349B7
:100760002068884220D11248016841F002010160EE
:100770000068694600F002000590C0200090122039
:100780000190012002900320039004200490094866
:10079000FFF7A0FD06481030016841F40011016028
:1007A000006800F40010059006B010BD0054004031
:1007B0003038024000040240024881680278114447
:1007C00081607047100000200B4810B5016841F4AB
:1007D00000710160016841F480610160016841F4C9
:1007E00080710160032000F063F8002000F006F83B
:1007F00000F024F8002010BD003C024070B50D4D03
:1008000004464FF47A712878B1FBF0F00A49096880
:10081000B1FBF0F000F0E6FA48B9102C07D2002244
:100820002146501E00F024F800206C6070BD0120AD
:1008300070BD0000100000201C0000200B4882B09A
:10084000016841F480410160006800F4804000903C
:100850000648001F016841F080510160006800F007
:1008600080500090072002B000F022B844380240C7
:10087000F0B40E4B1B680C46C3F30223C3F107050B
:10088000042D00D90425191D072901D2002300E0F9
:10089000DB1E012606FA05F1491E214099409E40C3
:1008A000761E16403143F0BC00F089BC0CED00E030
:1008B000064900F0070208684FF6FF03184040EAB7
:1008C0000220034A10430860704700000CED00E06E
:1008D0000000FA052DE9F0470E46050065D0DFF867
:1008E0001481D8F80000F7B200F00F00B04207D230
:1008F00088F80070D8F8000000F00F00B04254D122
:1009000028683D4C810712D5400703D5206840F484
:10091000E05020602878000703D5206840F460404C
:1009200020602068A96820F0F00008432060287843
:10093000C0072DD0304968680839012812D0022834
:1009400013D0032811D00968890700292DDA2168FE
:1009500021F0030101432160FFF798FD814641F238
:10096000883A0EE009688903EFE709688901ECE736
:10097000FFF78CFDA0EB0901514502D90320BDE82A
:10098000F0872068696800F00C00B0EB810FEFD1B0
:10099000D8F80010404601F00F01B14207D90770A6
:1009A000006800F00F00B04201D00120E7E728788E
:1009B000400705D52068E96820F4E050084320602E
:1009C0002878000706D52068296920F4604040EAAD
:1009D000C100206000F028F82168084AC1F3031123
:1009E000515CC8400649086006480068FFF706FFEA
:1009F0000020C4E7003C024008380240A826000856
:100A00001C00002014000020044805490068096803
:100A1000044AC1F38221515CC84070471C00002089
:100A200008380240B8260008154810B5006810F0D4
:100A30000C02144813D04110042A0FD0082A0ED1FA
:100A40000F4C241F2268236802F03F025B0207D587
:100A50002068C0F38810A0FB010106E0084610BD25
:100A60002168C1F38811A1FB00010023FFF7AAFB55
:100A70002168C1F30141491C4900B0FBF1F010BDF0
:100A8000083802400024F4002DE9F84F040076D025
:100A90002078DFF838A3CE4DC00749D0DAF800102F
:100AA0005046C1F38101012908D00068C0F38100DC
:100AB00002280AD1281D0068400206D52868800354
:100AC00036D560680028E2D032E06068B0F5803F3B
:100AD00010D0B0F5A02F286810D020F48030286006
:100AE000286820F4802028606068A0B1FFF7CEFC61
:100AF00006460CE0286840F48030F4E740F480209B
:100B00002860F7E7FFF7C2FC801B642873D82868C9
:100B10008003F7D50CE0FFF7B9FC064605E000BFFF
:100B2000FFF7B4FC801B6428F0D828688003F7D452
:100B30002078DFF8A08280074FF000093ED5DAF870
:100B40000010504611F00C0F09D00068C0F381006E
:100B500002280BD19D48001F0068400206D4286877
:100B6000800715D5E068012809D111E0E068B8B127
:100B70000120C8F80000FFF789FC064605E020E1E7
:100B8000FFF784FC801B0228C0D828688007F7D5AF
:100B90002868216920F0F80040EAC10028600DE0D3
:100BA000C8F80090FFF772FC064604E0FFF76EFC01
:100BB000801B02281FD828688007F7D420780007F8
:100BC00022D5824E844861696C3671B10121016081
:100BD000FFF75CFC074604E0FFF758FCC01B022847
:100BE00009D830688007F7D50EE0C0F80090FFF70D
:100BF0004DFC074605E082E0FFF748FCC01B0228D9
:100C00007DD830688007F7D42078400768D5DFF8B2
:100C1000BCB100270BF1380BDBF80000C0000BD48F
:100C2000DBF8001041F08051CBF80010DBF8000039
:100C3000012700F080500090684E3068C00510D445
:100C4000306840F480703060FFF720FC009005E0D1
:100C5000FFF71CFC0099401A022850D83068C005E4
:100C6000F6D55A4EA068683601280FD0052830689E
:100C700010D020F001003060306820F004003060B7
:100C8000A068B8B1FFF702FC00900FE0306840F0B8
:100C90000100F4E740F004003060F7E7FFF7F6FBEF
:100CA0000099411A41F28830814266D83068800745
:100CB000F4D50EE0FFF7EAFB009007E0FFF7E6FB54
:100CC0000099411A41F28830814256D83068800735
:100CD000F4D42FB1DBF8001021F08051CBF80010D4
:100CE000A069D0B3DAF800205146C2F38102022A8B
:100CF0004AD00228484607D0C8F8600000E03CE02F
:100D0000FFF7C4FB04463BE04746C8F86000FFF726
:100D1000BDFB064605E000BFFFF7B8FB801B0228BD
:100D20002BD828688001F7D4D4E907010843A16AC9
:100D30002B4A490802EB0141626A41EA82110843E9
:100D400094F82C1040EA01612048001F0160012046
:100D50003866FFF79BFB044605E034E0FFF796FB9F
:100D6000001B022809D828688001F7D52BE000BFB6
:100D7000FFF78CFB001B022802D90320BDE8F88F87
:100D800028688001F4D41EE00128F7D00868E269E1
:100D900000F48001914214D1226A00F03F01914297
:100DA0000FD147F6C071626A0140914209D1A26A2F
:100DB00000F44031914204D1E16A00F07060884251
:100DC00001D00120DAE70020D8E70000083802400F
:100DD0000038024000004742800E47420070004049
:100DE0000000FFFF10B5401EB0F1807F01D301204D
:100DF00010BD4FF0E02460610F21601700F0DFF9B3
:100E00000020A06107202061002010BDFEE70168DE
:100E10004A69D24352050FD46FF480624A610021BF
:100E200040F8301F202242738173026942F00402AD
:100E30000261017301207047002070472DE9F843DB
:100E4000044600680D46DDE9089701689846164695
:100E500041F4807101604B4600224FF001112046A1
:100E6000009700F065F848B120680068C00502D519
:100E70004FF4007020640320BDE8F883216805F07A
:100E8000FE0008613B464A461549204600F084F8BA
:100E900088B920684169806900903A4649462046F1
:100EA00000F0C5F848B1206C042804D1206801681E
:100EB00041F4007101600120DEE7F5B2B8F1010FE5
:100EC00009D02168300A08613A464946204600F0B8
:100ED000AEF80028E7D1206805610020CCE70000CB
:100EE0000200010070B516460D4604460DE020468E
:100EF000FFF78DFF08B1012070BD681C05D0FFF71A
:100F0000C5FA801BA84207D835B120684069C043A4
:100F10004007ECD4002070BD002044F8300F2021A1
:100F20006173A073216941F0200121612073E2E720
:100F30002DE9F0471E4690460D460446C1F307478B
:100F4000DDF8209008E0701C06D0FFF79FFAA0EBB8
:100F50000900B0420FD876B12068012F18D08069FF
:100F600025EA00000004000C14D000214145EAD01D
:100F70000020BDE8F087002044F8300F2021617385
:100F8000A073216941F02001216120730120F0E765
:100F90004069E5E70121E9E72DE9F0479A469146E6
:100FA0000E46044600254FF02008C1F3074725E010
:100FB00020684069C043400514D42068016841F4AA
:100FC0000071016021686FF480604861256384F8D6
:100FD0003D8084F83E50206C40F00400206484F88A
:100FE0003C501FE0B9F1FF3F08D0FFF74FFAA0EBEC
:100FF0000A0149450CD8B9F1000F09D02068012F2A
:1010000013D0806926EA00000004000C0BD0CFE763
:1010100044F8305F84F80D80A573206940F020000B
:10102000206125730120BDE8F0874069EAE770B5CB
:1010300016460D4604460DE02046FFF7E8FE08B1CF
:10104000012070BD681C05D0FFF720FA801BA84264
:1010500007D835B120684069C0430006ECD40020B1
:1010600070BD002044F8300F20216173A073216906
:1010700041F0200121612073E2E7FEE770477047ED
:1010800070B500250024E1B2E8B2002200F024F996
:10109000641C402CF7DB6D1C802DF3DBBDE8704039
:1010A00000F0B8B92DE9FF4F83468946D81DC11716
:1010B00000EB517000271D464FEAE00A3E46DDF87E
:1010C000348024E000241AE0600702D07806070E7E
:1010D00008E0E01704EB5071029800EBE10116FB09
:1010E0000A100778380608D50E9809F0FF01C2B239
:1010F0000BEB0400C0B200F0EFF8641C24B2AC4269
:10110000E2DB761C09F1010036B20FFA80F94645A0
:10111000D8DBBDE8FF8F7047FFF74EBB30B593B00B
:1011200030216846FFF786F814210CA8FFF782F8F3
:1011300019480025016841F080510160006800F005
:10114000805011901548016841F4804101600068A9
:10115000022400F48040119001200390102004909C
:10116000009406940820CDE90750A820CDE9090491
:1011700007200B906846FFF787FC0CA90F2081E839
:1011800031004FF4A0500F90E002109005210CA800
:10119000FFF7A0FB13B030BD4038024000700040A4
:1011A0000548016841F47001016003494FF0006097
:1011B000803908607047000088ED00E0FEE709070D
:1011C000090E002804DB00F1E02080F800147047CD
:1011D00000F00F0000F1E02080F8141D704702E0DD
:1011E00008C8121F08C1002AFAD1704770470020B2
:1011F00001E001C1121F002AFBD170471CB5FFF7A7
:10120000E3FAFFF78BFF28480021026842F0020250
:1012100002600068254A00F0020000902448026045
:10122000244AC0E901214FF48042C0E90312416120
:101230008161C1610162FFF72FF900F07DF801269D
:101240001D4C4FF47A7540270021084600F0DCF869
:10125000D4E90012012319A000F062F91221002044
:1012600000F0D2F8D4E90012012317A000F058F9D9
:101270002421002000F0C8F800F0CCF82846FFF741
:1012800017F8FFF7FDFECDE9007600218023114A13
:101290000846FFF707FF00F0BDF82846FFF708F8FB
:1012A000FFF7EEFED0E70000303802400054004067
:1012B00020000020801A06000000002048656C6CA9
:1012C0006F20576F726C64004F4C45442054657317
:1012D000740000004C15000870B5802813D2402916
:1012E00011D20B4B012401F007051E79AC40094BCC
:1012F000C90800EBC1100EB132B101E0012A03D0E0
:10130000195CA143195470BD195C2143FAE7000030
:10131000080000207400002010B5064A00214FF498
:10132000806328B1FF245454491C9942F9D310BD5D
:101330000024F8E77400002010B56420FEF7B8FF21
:10134000AE2000F0DBF8202000F0D8F8102000F0EC
:10135000D5F8B02000F0D2F8C82000F0CFF8002077
:1013600000F0CCF8102000F0C9F8402000F0C6F8DA
:10137000812000F0C3F8FF2000F0C0F8A12000F0A9
:10138000BDF8A62000F0BAF8A82000F0B7F83F207A
:1013900000F0B4F8A42000F0B1F8D32000F0AEF8CB
:1013A000002000F0ABF8D52000F0A8F8F02000F005
:1013B000A5F8D92000F0A2F8222000F09FF8DA204A
:1013C00000F09CF8122000F099F8DB2000F096F86D
:1013D000202000F093F88D2000F090F8142000F009
:1013E0008DF8AF2000F08AF80020FFF795FF00F09D
:1013F00011F8044800210180418001214171084613
:1014000010BD000008000020014A10805180704784
:1014100008000020FEB5002464250F4F802600BF81
:1014200004F1B000C0B200F069F8002000F066F8E6
:10143000102000F063F807EBC410CDE9000601238B
:101440004022782102950548FFF7EAF8641CE4B2CF
:10145000082CE5D3FEBD0000740000202000002011
:101460002DE9FF4F834624489246CEB2028832448B
:10147000802A06D281464088C1F307273844402895
:1014800003D3002004B0BDE8F08F002528E000BFA2
:10149000ABF1200010FB07503AF8108000241CE04C
:1014A00008FA04F0000409D599F8021099F8000030
:1014B00029442044C9B2C0B2039A0BE00398C0B1DA
:1014C0005FF0000299F8021099F8000029442044C6
:1014D000C9B2C0B2FFF700FF641CA642E0D86D1C81
:1014E000AF42D5D8B9F8001058463144A9F80010D9
:1014F000C8E70122E6E700000800002001B584B03B
:1015000001210A2204A88DE807000B460022782159
:101510000248FFF785F805B000BD0000200000205C
:10152000F0B51D460E46174604460AE02B463A46DD
:101530003146FFF795FF2178884201D0C8B2F0BD4F
:10154000641C20780028F1D1C0B2F0BDFFFFFFFF7E
:10155000FFFFFFFFFFFFFFFFFFFFFFFFFFFFFFFF9B
:10156000FFE007FFFFF807FFFFFFFFFFFFFFFFFFA1
:10157000FF8001FFFFC000FFFFFFFFFFFFFFFFFF36
:10158000FE00007FFF00003FFFFFFFFFFFFFFFFFA8
:10159000F800003FFC00000FFFFFFFFFFFFFFFFF11
:1015A000F000000FF8000007FFFFFFFFFFFFFFFF45
:1015B000E0000007F0000003FFFFFFFFFFFFFFFF59
:1015C000C0000007E0000001FFFFFFFFFFFFFFFF7B
:1015D00080000003E0000000FFFFFFFFFFFFFFFFB0
:1015E00000000001C00000007FFFFFFFFFFFFFFFC2
:1015F00000000001C00000007FFFFFFFFFFFFFFEB3
:1016000000000000800000003FFFFFFFFFFFFFFE23
:1016100000000000800000003FFFFFFFFFFFFFFC15
:1016200000000000000000003FFFFFFFFFFFFFFC85
:1016300000000000000000001FFFFFFFFFFFFFFC95
:1016400000000000000000001FFFFFFFFFFFFFFC85
:1016500000000000000000001FFFFFFFFFFFFFFC75
:1016600000000000000000001FFFFFFFFFFFFFFC65
:1016700000000000000000001FFFFFFFFFFFFFFC55
:1016800000000000000000001FFFFFFFFFFFFFFC45
:1016900000000000000000001FFFFFFFFFFFFFFC35
:1016A00000000000000000001FFFFFFFFFFFFFFC25
:1016B00000000000000000001FFFFFFFFFFFFFFC15
:1016C00000000000000000001FFFFFFFFFFFFFFC05
:1016D00000000000000000001FFFFFFFFFFFFFFCF5
:1016E00000000000000000001FFFFFFFFFFFFFFCE5
:1016F00000000000000000001FFFFFFFFFFFFFFCD5
:1017000000000000000000001FFFFFFFFFFFFFFEC2
:1017100000000000000000003FFFFFFFFFFFFFFE92
:1017200000000000000000003FFFFFFFFFFFFFFE82
:1017300000000000000000003FFFFFFFFFFFFFFF71
:1017400000000000000000007FFFFFFFFFFFFFFF21
:1017500000000000000000007FFFFFFFFFFFFFFF11
:101760008000000000000000FFFFFFFFFFFFFFFF01
:101770008000000000000000FFFFFFFFFFFFFFFFF1
:10178000C000000000000001FFFFFFFFFFFFFFFFA0
:10179000E000000000000003FFFFFFFFFFFFFFFF6E
:1017A000E000000000000007FFFFFFFFFFFFFFFF5A
:1017B000F000000000000007FFFFFFFFFFFFFFFF3A
:1017C000F80000000000000FFFFFFFFFFFFFFFFF1A
:1017D000FC0000000000001FFFFFFFFFFFFFFFFFF6
:1017E000FE0000000000003FFFFFFFFFFFFFFFFFC4
:1017F000FF0000000000007FFFFFFFFFFFFFFFFF73
:10180000FF800000000001FFFFFFFFFFFFFFFFFF61
:10181000FFE00000000003FFFFFFFFFFFFFFFFFFEF
:10182000FFF00000000007FFFFFFFFFFFFFFFFFFCB
:10183000FFF8000000000FFFFFFFFFFFFFFFFFFFAB
:10184000FFFC000000003FFFFFFFFFFFFFFFFFFF67
:10185000FFFF000000007FFFFFFFFFFFFFFFFFFF14
:10186000FFFF80000000FFFFFFFFFFFFFFFFFFFF04
:10187000FFFFC0000003FFFFFFFFFFFFFFFFFFFFB1
:10188000FFFFE0000007FFFFFFFFFFFFFFFFFFFF7D
:10189000FFFFF800000FFFFFFFFFFFFFFFFFFFFF4D
:1018A000FFFFFC00001FFFFFFFFFFFFFFFFFFFFF29
:1018B000FFFFFE00007FFFFFFFFFFFFFFFFFFFFFB7
:1018C000FFFFFF8000FFFFFFFFFFFFFFFFFFFFFFA6
:1018D000FFFFFFC001FFFFFFFFFFFFFFFFFFFFFF55
:1018E000FFFFFFE003FFFFFFFFFFFFFFFFFFFFFF23
:1018F000FFFFFFF007FFFFFFFFFFFFFFFFFFFFFFFF
:10190000FFFFFFF80FFFFFFFFFFFFFFFFFFFFFFFDE
:10191000FFFFFFFC1FFFFFFFFFFFFFFFFFFFFFFFBA
:10192000FFFFFFFE3FFFFFFFFFFFFFFFFFFFFFFF88
:10193000FFFFFFFF7FFFFFFFFFFFFFFFFFFFFFFF37
:10194000FFFFFFFFFFFFFFFFFFFFFFFF00000000A3
:101950000000000000000000000000000000000087
:101960000000000000000000000000000000000077
:101970000000000C000C000C000C000C000C000C13
:10198000000C000C000C000C0000000C000C00000F
:10199000000000000000001B001B001B001B001BC0
:1019A0000000000000000000000000000000000037
:1019B000000000000000000000008019801980195C
:1019C0008019C07FC07F80190033C07FC07F003383
:1019D0000033003300330000000000000000001E50
:1019E000003F807580650074003C001E0007800584
:1019F000806580658075003F001E000400040000C3
:101A00000000007000D840D8C0D880D9007300060C
:101A1000000C801BC036C066C046C00680030000B4
:101A2000000000000000001E003F003300330033C0
:101A3000001E000CC03CC066806380618063C03EB5
:101A4000801C0000000000000000000C000C000CD6
:101A5000000C000C0000000000000000000000006E
:101A600000000000000000000000000080000001F5
:101A70000003000600060004000C000C000C000C23
:101A8000000C000C000400060006000300018000AA
:101A9000002000100018000C000C000400060006D6
:101AA00000060006000600060004000C000C0018EA
:101AB000001000200000000C002D003F001E00332D
:101AC0000000000000000000000000000000000016
:101AD0000000000000000000000000000000000CFA
:101AE000000C000C000CC0FFC0FF000C000C000C30
:101AF000000C0000000000000000000000000000DA
:101B000000000000000000000000000000000000D5
:101B1000000000000000000C000C0004000400089D
:101B200000000000000000000000000000000000B5
:101B30000000001E001E0000000000000000000069
:101B40000000000000000000000000000000000095
:101B50000000000000000000000000000000000C79
:101B6000000C000000000000000000030003000360
:101B70000006000600060006000C000C000C000C1D
:101B80000018001800180000000000000000001EEF
:101B9000003F0033806180618061806D806D806175
:101BA000806180610033003F001E000000000000E3
:101BB00000000006000E001E00360026000600068B
:101BC00000060006000600060006000600060000EB
:101BD000000000000000001E003F807380618061F3
:101BE000800100030006000C001800300060807FB8
:101BF000807F0000000000000000001C003E006329
:101C000000630003000E000E00038001800180616C
:101C10008073003F001E000000000000000000066E
:101C2000000E000E001E001E001600360036006674
:101C3000807F807F00060006000600000000000094
:101C40000000007F007F006000600060006E007F89
:101C500080638001800180618073003F001E00006E
:101C6000000000000000001E003F80338061006023
:101C7000006E007F80738061806180618033003FEF
:101C8000001E0000000000000000807F807F8001B7
:101C90000003000300060006000C000C000C000806
:101CA0000018001800180000000000000000001ECE
:101CB000003F8063806180610021001E003F8061E1
:101CC000806180618061003F001E00000000000014
:101CD0000000001E003F007380618061806180739E
:101CE000803F801D800180610073003F001E000066
:101CF0000000000000000000000000000000000CD8
:101D0000000C000000000000000000000000000CBB
:101D1000000C0000000000000000000000000000B7
:101D200000000000000C000C00000000000000009B
:101D30000000000C000C000400040008000000007B
:101D40000000000080008003000E003800600038B2
:101D5000000E800380000000000000000000000072
:101D600000000000000000000000807F807F000075
:101D70000000807F807F0000000000000000000065
:101D800000000000000000000000000000400070A3
:101D9000001C000780010007001C007000400000CC
:101DA00000000000000000000000001F803FC07124
:101DB000C060C000C00180030007000E000C000CD2
:101DC0000000000C000C0000000000000000001EDD
:101DD000003F803180718063806F806D806D806F87
:101DE000806700600032003E001C00000000000020
:101DF0000000000E000E001B001B001B001B8031AA
:101E00008031803F803F8031C060C060C060000092
:101E1000000000000000007C007E0063006300639F
:101E20000063007E007E0063806180618063007FCC
:101E3000007E0000000000000000001E003F803116
:101E40008061006000600060006000600060806190
:101E50008031003F001E0000000000000000007CF8
:101E6000007F006380638061806180618061806148
:101E7000806100630063007E007C000000000000C1
:101E80000000807F807F0060006000600060007F55
:101E9000007F0060006000600060807F807F000045
:101EA000000000000000807F807F00600060006014
:101EB0000060007F007F00600060006000600060E4
:101EC00000600000000000000000001E003F8031A4
:101ED0008061006000600060806380638061806179
:101EE0008031803F001E0000000000000000806183
:101EF00080618061806180618061807F807F80619E
:101F0000806180618061806180610000000000006C
:101F10000000003F003F000C000C000C000C000C07
:101F2000000C000C000C000C000C003F003F0000F7
:101F3000000000000000800180018001800180011C
:101F40008001800180018001806180618073003F99
:101F5000001E0000000000000000C06080610063FF
:101F600000660066006C0078007C00660066006316
:101F700080618061C060000000000000000000601F
:101F80000060006000600060006000600060006051
:101F9000006000600060807F807F00000000000023
:101FA0000000C071C071C07BC07AC06AC06AC06ED8
:101FB000C064C060C060C060C060C060C06000003D
:101FC0000000000000008071807180798079807944
:101FD000806D806D806D80658067806780678063BD
:101FE00080630000000000000000001E003F00337E
:101FF00080618061806180618061806180618061D9
:102000000033003F001E0000000000000000007EC2
:10201000007F80638061806180618063007F007EDB
:1020200000600060006000600060000000000000D0
:102030000000001E003F003380618061806180618C
:1020400080618061806580670033803F401E0000B2
:10205000000000000000007E007F806380618061DE
:102060008063007F007E00660063006380618061A2
:10207000C0600000000000000000000E001F803162
:10208000803100300038001E0007800380618061CD
:102090008031003F001E0000000000000000C0FF73
:1020A000C0FF000C000C000C000C000C000C000C1D
:1020B000000C000C000C000C000C000000000000E4
:1020C00000008061806180618061806180618061E9
:1020D00080618061806180618073003F001E00002C
:1020E000000000000000C060C060C060803180312E
:1020F0008031001B001B001B001B000E000E000E99
:1021000000040000000000000000C0C0C0C0C0C04B
:10211000C0C0C0C0C0CC804C804C805E8052805219
:102120008073806180610000000000000000C0C07A
:10213000806080610033003B001E000C000C001E1C
:10214000001F003B80718061C0C0000000000000E3
:102150000000C0C08061806100330033001E001E9B
:10216000000C000C000C000C000C000C000C00001B
:10217000000000000000803F803F8001000300035A
:102180000006000C000C0018001800300060807F72
:10219000807F000000000000000F000F000C000C0A
:1021A000000C000C000C000C000C000C000C000CCF
:1021B000000C000C000C000C000F000F00000018B9
:1021C00000180018000C000C000C000C00060006A3
:1021D00000060006000300030003000000000000EA
:1021E000001E001E0006000600060006000600068F
:1021F00000060006000600060006000600060006AF
:10220000001E001E0000000C000C001E0012003317
:1022100000338061806100000000000000000000C9
:1022200000000000000000000000000000000000AE
:10223000000000000000000000000000000000009E
:102240000000000000000000E0FF00000000003877
:102250000018000C0000000000000000000000005A
:10226000000000000000000000000000000000006E
:1022700000000000000000000000001F803F80619F
:102280008001801F803F80618063807FC0380000B4
:102290000000000000000060006000600060006E50
:1022A000007F807380618061806180618073007FC6
:1022B000006E0000000000000000000000000000B0
:1022C0000000001E003F807380610060006080613C
:1022D0008073003F001E000000000000000080012D
:1022E000800180018001801D803F8073806180615A
:1022F000806180618073803F801D000000000000CD
:1023000000000000000000000000001E003F0073FD
:102310008061807F807F00608071003F001E000030
:10232000000000000000C007C00F000C000C807F00
:10233000807F000C000C000C000C000C000C000C4A
:10234000000C000000000000000000000000000081
:10235000801D803F807380618061806180618073B7
:10236000803F801D80018063007F003E0000006090
:10237000006000600060006F807F8071806180611C
:1023800080618061806180618061000000000000E8
:1023900000000006000600000000003E003E0006AF
:1023A0000006000600060006000600060006000003
:1023B000000000000006000600000000003E003E95
:1023C00000060006000600060006000600060006DD
:1023D00000060046007E003C0000006000600060D7
:1023E0000060806100630066006C007C0076006322
:1023F00000638061C0600000000000000000003E3B
:10240000003E000600060006000600060006000664
:10241000000600060006000600060000000000009E
:102420000000000000000000000080DDC0FFC0CE02
:10243000C0CCC0CCC0CCC0CCC0CCC0CCC0CC0000C8
:102440000000000000000000000000000000006F1D
:10245000807F807180618061806180618061806146
:10246000806100000000000000000000000000008B
:102470000000001E003F8073806180618061806188
:102480008073003F001E00000000000000000000FC
:1024900000000000006E007F8073806180618061B9
:1024A00080618073007F006E0060006000600060EB
:1024B0000000000000000000801D803F80738061EC
:1024C0008061806180618073803F801D8001800118
:1024D0008001800100000000000000000000006793
:1024E000803F0039003000300030003000300030D4
:1024F00000300000000000000000000000000000AC
:102500000000001E803F80610060007F803F8001EE
:102510008061007F001E000000000000000000003D
:10252000000800180018007F007F0018001800182D
:10253000001800180018801F800F00000000000025
:1025400000000000000000000000806180618061E8
:1025500080618061806180618063807F803D000058
:102560000000000000000000000000000000C0604B
:10257000803180318031001B001B001B000E000EDB
:102580000006000000000000000000000000000045
:10259000000080DD80DD80DD0055005500550077AE
:1025A0000077002200220000000000000000000070
:1025B000000000000000806100330033001E000CAA
:1025C000000C001E0033003380610000000000009A
:1025D0000000000000000000806180618031003355
:1025E0000033001B001B001B000E000E000E001C21
:1025F000007C007000000000000000000000C07FB0
:10260000C07F800100030006000C00180030C07F6E
:10261000C07F000000000000800380070006000665
:10262000000600060006000E001C001C000E00063E
:10263000000600060006000680078003000600066C
:10264000000600060006000600060006000600065A
:10265000000600060006000600060006000600064A
:102660000038003C000C000C000C000C000C000EAC
:1026700000070007000E000C000C000C000C000C02
:10268000003C0038000000000000000000000000D6
:1026900000008038807F004700000000000000003C
:1026A000000000000000000000000000000000002A
:1026B00001020304060708090000000001020304E8
:1026C000E02600080000002020000000DE110008C5
:1026D000002700082000002058080000EE11000824
:1026E0000B1200004C190008000000000000000060
:1026F0000100000010000000000000000024F400B1
:040000050800018965
:00000001FF
